{
  "_format": "hh-sol-artifact-1",
  "contractName": "MetaMixx",
  "sourceName": "contracts/metamix-uppated.sol",
  "abi": [
    {
      "inputs": [
        {
          "internalType": "string",
          "name": "_referralId",
          "type": "string"
        },
        {
          "internalType": "address",
          "name": "_tokenAddress",
          "type": "address"
        }
      ],
      "stateMutability": "nonpayable",
      "type": "constructor"
    },
    {
      "anonymous": false,
      "inputs": [
        {
          "indexed": true,
          "internalType": "address",
          "name": "owner",
          "type": "address"
        },
        {
          "indexed": false,
          "internalType": "uint256",
          "name": "amount",
          "type": "uint256"
        }
      ],
      "name": "FundsWithdrawn",
      "type": "event"
    },
    {
      "anonymous": false,
      "inputs": [
        {
          "indexed": true,
          "internalType": "address",
          "name": "user",
          "type": "address"
        },
        {
          "indexed": false,
          "internalType": "uint256",
          "name": "packageLevel",
          "type": "uint256"
        },
        {
          "indexed": false,
          "internalType": "uint256",
          "name": "amount",
          "type": "uint256"
        }
      ],
      "name": "PackagePurchased",
      "type": "event"
    },
    {
      "anonymous": false,
      "inputs": [
        {
          "indexed": true,
          "internalType": "address",
          "name": "owner",
          "type": "address"
        }
      ],
      "name": "UpdateOwner",
      "type": "event"
    },
    {
      "anonymous": false,
      "inputs": [
        {
          "indexed": true,
          "internalType": "address",
          "name": "_oldAddress",
          "type": "address"
        },
        {
          "indexed": true,
          "internalType": "address",
          "name": "_newAddress",
          "type": "address"
        }
      ],
      "name": "UpdateUser",
      "type": "event"
    },
    {
      "anonymous": false,
      "inputs": [
        {
          "indexed": true,
          "internalType": "address",
          "name": "user",
          "type": "address"
        },
        {
          "indexed": false,
          "internalType": "string",
          "name": "referralId",
          "type": "string"
        },
        {
          "indexed": true,
          "internalType": "address",
          "name": "parent",
          "type": "address"
        }
      ],
      "name": "UserRegistered",
      "type": "event"
    },
    {
      "inputs": [
        {
          "internalType": "string",
          "name": "_referralId",
          "type": "string"
        },
        {
          "internalType": "address",
          "name": "_referralAddress",
          "type": "address"
        },
        {
          "internalType": "uint256",
          "name": "_level",
          "type": "uint256"
        }
      ],
      "name": "buyPackage",
      "outputs": [],
      "stateMutability": "nonpayable",
      "type": "function"
    },
    {
      "inputs": [],
      "name": "companyWallet",
      "outputs": [
        {
          "internalType": "address",
          "name": "",
          "type": "address"
        }
      ],
      "stateMutability": "view",
      "type": "function"
    },
    {
      "inputs": [],
      "name": "contractOwner",
      "outputs": [
        {
          "internalType": "address",
          "name": "",
          "type": "address"
        }
      ],
      "stateMutability": "view",
      "type": "function"
    },
    {
      "inputs": [
        {
          "internalType": "address",
          "name": "_user",
          "type": "address"
        }
      ],
      "name": "getUser",
      "outputs": [
        {
          "components": [
            {
              "internalType": "bool",
              "name": "registered",
              "type": "bool"
            },
            {
              "internalType": "string",
              "name": "referralId",
              "type": "string"
            },
            {
              "internalType": "address",
              "name": "parentReferral",
              "type": "address"
            },
            {
              "internalType": "address[]",
              "name": "childReferrals",
              "type": "address[]"
            },
            {
              "internalType": "uint256",
              "name": "level",
              "type": "uint256"
            }
          ],
          "internalType": "struct MetaMixx.User",
          "name": "",
          "type": "tuple"
        }
      ],
      "stateMutability": "view",
      "type": "function"
    },
    {
      "inputs": [
        {
          "internalType": "uint256",
          "name": "",
          "type": "uint256"
        }
      ],
      "name": "prices",
      "outputs": [
        {
          "internalType": "uint256",
          "name": "",
          "type": "uint256"
        }
      ],
      "stateMutability": "view",
      "type": "function"
    },
    {
      "inputs": [
        {
          "internalType": "string",
          "name": "",
          "type": "string"
        }
      ],
      "name": "referralIds",
      "outputs": [
        {
          "internalType": "address",
          "name": "",
          "type": "address"
        }
      ],
      "stateMutability": "view",
      "type": "function"
    },
    {
      "inputs": [
        {
          "internalType": "string",
          "name": "_referralId",
          "type": "string"
        },
        {
          "internalType": "address",
          "name": "_referralAddress",
          "type": "address"
        }
      ],
      "name": "registerUser",
      "outputs": [],
      "stateMutability": "nonpayable",
      "type": "function"
    },
    {
      "inputs": [],
      "name": "token",
      "outputs": [
        {
          "internalType": "contract ERC20",
          "name": "",
          "type": "address"
        }
      ],
      "stateMutability": "view",
      "type": "function"
    },
    {
      "inputs": [
        {
          "internalType": "address",
          "name": "_newCompanyWallet",
          "type": "address"
        }
      ],
      "name": "updateCompanyWallet",
      "outputs": [],
      "stateMutability": "nonpayable",
      "type": "function"
    },
    {
      "inputs": [
        {
          "internalType": "address",
          "name": "_newOwner",
          "type": "address"
        }
      ],
      "name": "updateOwner",
      "outputs": [
        {
          "internalType": "bool",
          "name": "",
          "type": "bool"
        }
      ],
      "stateMutability": "nonpayable",
      "type": "function"
    },
    {
      "inputs": [
        {
          "internalType": "uint256",
          "name": "_level",
          "type": "uint256"
        },
        {
          "internalType": "uint256",
          "name": "_price",
          "type": "uint256"
        }
      ],
      "name": "updatePackagePrice",
      "outputs": [],
      "stateMutability": "nonpayable",
      "type": "function"
    },
    {
      "inputs": [
        {
          "internalType": "address",
          "name": "_oldAddress",
          "type": "address"
        },
        {
          "internalType": "address",
          "name": "_newAddress",
          "type": "address"
        }
      ],
      "name": "updateUser",
      "outputs": [
        {
          "internalType": "bool",
          "name": "",
          "type": "bool"
        }
      ],
      "stateMutability": "nonpayable",
      "type": "function"
    },
    {
      "inputs": [],
      "name": "withdraw",
      "outputs": [],
      "stateMutability": "nonpayable",
      "type": "function"
    }
  ],
  "bytecode": "0x6101c0604052600a6080818152601460a0908152602860c052605060e05261010052610140610120819052610280905261050061016052610a00610180526114006101a0526200005391600491906200019c565b5060408051610120810182526014815260116020820152600f91810191909152600d6060820152600b6080820152600960a08201819052600760c0830152600560e083018190526003610100840152620000af929091620001f2565b50348015620000bd57600080fd5b50604051620031c0380380620031c0833981016040819052620000e091620002a5565b600080546001600160a01b0319163390811782558152600260205260409020805460ff1916600190811782550162000119838262000403565b503360008181526002602081905260409182902090810180546001600160a01b03191684179055600a6004909101555160039062000159908590620004cf565b90815260405190819003602001902080546001600160a01b039283166001600160a01b0319918216179091556006805493909216921691909117905550620004ed565b828054828255906000526020600020908101928215620001e0579160200282015b82811115620001e0578251829061ffff16905591602001919060010190620001bd565b50620001ee92915062000235565b5090565b828054828255906000526020600020908101928215620001e0579160200282015b82811115620001e0578251829060ff1690559160200191906001019062000213565b5b80821115620001ee576000815560010162000236565b634e487b7160e01b600052604160045260246000fd5b60005b838110156200027f57818101518382015260200162000265565b50506000910152565b80516001600160a01b0381168114620002a057600080fd5b919050565b60008060408385031215620002b957600080fd5b82516001600160401b0380821115620002d157600080fd5b818501915085601f830112620002e657600080fd5b815181811115620002fb57620002fb6200024c565b604051601f8201601f19908116603f011681019083821181831017156200032657620003266200024c565b816040528281528860208487010111156200034057600080fd5b6200035383602083016020880162000262565b8096505050505050620003696020840162000288565b90509250929050565b600181811c908216806200038757607f821691505b602082108103620003a857634e487b7160e01b600052602260045260246000fd5b50919050565b601f821115620003fe576000816000526020600020601f850160051c81016020861015620003d95750805b601f850160051c820191505b81811015620003fa57828155600101620003e5565b5050505b505050565b81516001600160401b038111156200041f576200041f6200024c565b620004378162000430845462000372565b84620003ae565b602080601f8311600181146200046f5760008415620004565750858301515b600019600386901b1c1916600185901b178555620003fa565b600085815260208120601f198616915b82811015620004a0578886015182559484019460019091019084016200047f565b5085821015620004bf5787850151600019600388901b60f8161c191681555b5050505050600190811b01905550565b60008251620004e381846020870162000262565b9190910192915050565b612cc380620004fd6000396000f3fe608060405234801561001057600080fd5b50600436106100cf5760003560e01c8063880cdc311161008c578063bd5ec8ef11610066578063bd5ec8ef146101df578063ce606ee0146101f2578063d4f11ab214610205578063fc0c546a1461021857600080fd5b8063880cdc311461018857806391b465c8146101ab578063bc31c1c1146101be57600080fd5b80630e54b872146100d45780631350db0c146100e95780631ec32d151461013a5780633ccfd60b1461014d5780636f77926b146101555780637bb0d4a814610175575b600080fd5b6100e76100e23660046123c3565b61022b565b005b61011d6100f7366004612411565b80516020818301810180516003825292820191909301209152546001600160a01b031681565b6040516001600160a01b0390911681526020015b60405180910390f35b60015461011d906001600160a01b031681565b6100e7610475565b61016861016336600461244e565b610622565b60405161013191906124c0565b6100e761018336600461255b565b6107a6565b61019b61019636600461244e565b611843565b6040519015158152602001610131565b61019b6101b93660046125b2565b611b6e565b6101d16101cc3660046125dc565b611fba565b604051908152602001610131565b6100e76101ed3660046125f5565b611fdb565b60005461011d906001600160a01b031681565b6100e761021336600461244e565b612089565b60065461011d906001600160a01b031681565b3360009081526002602052604090205460ff16156102905760405162461bcd60e51b815260206004820152601760248201527f5573657220616c7265616479207265676973746572656400000000000000000060448201526064015b60405180910390fd5b60006001600160a01b03166003836040516102ab9190612617565b908152604051908190036020019020546001600160a01b0316146103115760405162461bcd60e51b815260206004820152601a60248201527f526566657272616c20494420616c7265616479206578697374730000000000006044820152606401610287565b6001600160a01b03811660009081526002602052604090205460ff166103795760405162461bcd60e51b815260206004820152601f60248201527f526566657272616c2061646472657373206e6f742072656769737465726564006044820152606401610287565b336000908152600260205260409020805460ff191660019081178255016103a083826126be565b5033600081815260026020818152604080842090920180546001600160a01b0387166001600160a01b03199182168117909255908452828420600380820180546001810182559087529390952090920180549091168517905590519092919061040a908690612617565b90815260405190819003602001812080546001600160a01b039384166001600160a01b03199091161790559083169033907f43864134af361805265e0c6a51a53b97a54d02d4753018d0d1ef2d19a44ff6029061046890879061277e565b60405180910390a3505050565b6000546001600160a01b0316331461049f5760405162461bcd60e51b815260040161028790612791565b6006546040516370a0823160e01b81523060048201526000916001600160a01b0316906370a0823190602401602060405180830381865afa1580156104e8573d6000803e3d6000fd5b505050506040513d601f19601f8201168201806040525081019061050c91906127b8565b60065460005460405163a9059cbb60e01b81529293506001600160a01b039182169263a9059cbb9261054492169085906004016127d1565b6020604051808303816000875af1158015610563573d6000803e3d6000fd5b505050506040513d601f19601f8201168201806040525081019061058791906127ea565b6105dd5760405162461bcd60e51b815260206004820152602160248201527f4572726f7220696e207769746864726177696e6720424550323020746f6b656e6044820152607360f81b6064820152608401610287565b6000546040518281526001600160a01b03909116907feaff4b37086828766ad3268786972c0cd24259d4c87a80f9d3963a3c3d999b0d9060200160405180910390a250565b61065f6040518060a001604052806000151581526020016060815260200160006001600160a01b0316815260200160608152602001600081525090565b6001600160a01b038216600090815260026020908152604091829020825160a08101909352805460ff161515835260018101805491928401916106a190612633565b80601f01602080910402602001604051908101604052809291908181526020018280546106cd90612633565b801561071a5780601f106106ef5761010080835404028352916020019161071a565b820191906000526020600020905b8154815290600101906020018083116106fd57829003601f168201915b505050918352505060028201546001600160a01b0316602080830191909152600383018054604080518285028101850182528281529401939283018282801561078c57602002820191906000526020600020905b81546001600160a01b0316815260019091019060200180831161076e575b505050505081526020016004820154815250509050919050565b3360009081526002602052604090205460ff166107c7576107c7838361022b565b3360009081526002602052604090205460ff1661081c5760405162461bcd60e51b8152602060048201526013602482015272155cd95c881b9bdd081c9959da5cdd195c9959606a1b6044820152606401610287565b60008111801561082e57506004548111155b6108725760405162461bcd60e51b8152602060048201526015602482015274125b9d985b1a59081c1858dad859d9481b195d995b605a1b6044820152606401610287565b600461087f600183612822565b8154811061088f5761088f612835565b6000918252602090912001546006546040516370a0823160e01b81523360048201526001600160a01b03909116906370a0823190602401602060405180830381865afa1580156108e3573d6000803e3d6000fd5b505050506040513d601f19601f8201168201806040525081019061090791906127b8565b10156109615760405162461bcd60e51b815260206004820152602360248201527f496e73756666696369656e742062616c616e636520696e20424550323020746f60448201526235b2b760e91b6064820152608401610287565b6006546040805163313ce56760e01b815290516000926001600160a01b03169163313ce5679160048083019260209291908290030181865afa1580156109ab573d6000803e3d6000fd5b505050506040513d601f19601f820116820180604052508101906109cf919061284b565b6109da90600a612952565b6006549091506001600160a01b03166323b872dd33308460046109fe600189612822565b81548110610a0e57610a0e612835565b9060005260206000200154610a239190612961565b6040516001600160e01b031960e086901b1681526001600160a01b03938416600482015292909116602483015260448201526064016020604051808303816000875af1158015610a77573d6000803e3d6000fd5b505050506040513d601f19601f82011682018060405250810190610a9b91906127ea565b610ae75760405162461bcd60e51b815260206004820152601f60248201527f4661696c656420746f207472616e7366657220424550323020746f6b656e73006044820152606401610287565b33600090815260026020526040902060040154610b05906001612978565b8214610b535760405162461bcd60e51b815260206004820152601f60248201527f4d757374207075726368617365207061636b6167657320696e206f72646572006044820152606401610287565b3360009081526002602052604081206004908101849055606490610b78600186612822565b81548110610b8857610b88612835565b90600052602060002001546014610b9f9190612961565b610ba99084612961565b610bb3919061298b565b9050600060646004610bc6600187612822565b81548110610bd657610bd6612835565b90600052602060002001546028610bed9190612961565b610bf79085612961565b610c01919061298b565b9050600060646004610c14600188612822565b81548110610c2457610c24612835565b90600052602060002001546014610c3b9190612961565b610c459086612961565b610c4f919061298b565b90506000818385876004610c6460018c612822565b81548110610c7457610c74612835565b9060005260206000200154610c899190612961565b610c939190612822565b610c9d9190612822565b610ca79190612822565b90506000879050610ced6040518060400160405280601781526020017f64697265637420706172656e7420616464726573733a200000000000000000008152508961212b565b6001600160a01b038181166000908152600260208181526040808420909201548251600a80825261016082019094529416939190820161014080368337505060065460015460405163a9059cbb60e01b81529394506000936001600160a01b03928316935063a9059cbb92610d689216908c906004016127d1565b6020604051808303816000875af1158015610d87573d6000803e3d6000fd5b505050506040513d601f19601f82011682018060405250810190610dab91906127ea565b610dfd5760405162461bcd60e51b815260206004820152602f6024820152600080516020612c6e83398151915260448201526e0810dbdb5c185b9e4815d85b1b195d608a1b6064820152608401610287565b6001600160a01b038b16600090815260026020526040812060038101549091610e26828a61298b565b905060005b610e36600184612822565b811015610eed576006546003850180546001600160a01b039092169163a9059cbb919084908110610e6957610e69612835565b6000918252602090912001546040516001600160e01b031960e084901b168152610ea1916001600160a01b03169086906004016127d1565b6020604051808303816000875af1158015610ec0573d6000803e3d6000fd5b505050506040513d601f19601f82011682018060405250810190610ee491906127ea565b50600101610e2b565b508115610fc757600081610f02600185612822565b610f0c9190612961565b610f16908b612822565b6006549091506001600160a01b031663a9059cbb60038601610f39600187612822565b81548110610f4957610f49612835565b6000918252602090912001546040516001600160e01b031960e084901b168152610f81916001600160a01b03169085906004016127d1565b6020604051808303816000875af1158015610fa0573d6000803e3d6000fd5b505050506040513d601f19601f82011682018060405250810190610fc491906127ea565b50505b60055484108015610fe057506001600160a01b03861615155b1561106b5785858581518110610ff857610ff8612835565b6001600160a01b03909216602092830291909101909101528361101a816129ad565b6001600160a01b0380891660008181526002602081905260409091200154929750911614905061106b576001600160a01b039586166000908152600260208190526040909120015490951694610fc7565b6110a1604051806040016040528060148152602001730e0c2e4cadce882c8c8e4cae6e640d8cadccee8d60631b81525085612174565b6001600160a01b0387166000908152600260205260409020600401548d111561145d576110e56040518060600160405280602f8152602001612c3f602f91396121b9565b6006546001600160a01b031663a9059cbb88611102876001612978565b61110c908e61298b565b6040518363ffffffff1660e01b81526004016111299291906127d1565b6020604051808303816000875af1158015611148573d6000803e3d6000fd5b505050506040513d601f19601f8201168201806040525081019061116c91906127ea565b6111bd5760405162461bcd60e51b815260206004820152602e6024820152600080516020612c6e83398151915260448201526d0814185c995b9d0815d85b1b195d60921b6064820152608401610287565b6009841080156111cd5750600084115b156113395760005b848110156113335760065486516001600160a01b039091169063a9059cbb9088908490811061120657611206612835565b602002602001015187600161121b9190612978565b611225908f61298b565b61122f898e61298b565b6112399190612978565b6040518363ffffffff1660e01b81526004016112569291906127d1565b6020604051808303816000875af1158015611275573d6000803e3d6000fd5b505050506040513d601f19601f8201168201806040525081019061129991906127ea565b61132b5760405162461bcd60e51b81526020600482015260636024820152600080516020612c6e83398151915260448201527f2055706c696e6520506172656e742077616c6c657420696e206361736520746860648201527f61742075706c696e65506172656e74436f756e74206973206c657373207468616084820152626e203960e81b60a482015260c401610287565b6001016111d5565b50611832565b600984106114585760005b6005548110156113335760065486516001600160a01b039091169063a9059cbb9088908490811061137757611377612835565b602002602001015160646005858154811061139457611394612835565b90600052602060002001548d6113aa9190612961565b6113b4919061298b565b6113bf896001612978565b8f6113ca919061298b565b6113d49190612978565b6040518363ffffffff1660e01b81526004016113f19291906127d1565b6020604051808303816000875af1158015611410573d6000803e3d6000fd5b505050506040513d601f19601f8201168201806040525081019061143491906127ea565b6114505760405162461bcd60e51b8152600401610287906129c6565b600101611344565b611832565b61147e6040518060600160405280602d8152602001612c12602d91396121b9565b60065460405163a9059cbb60e01b81526001600160a01b039091169063a9059cbb906114b0908a908e906004016127d1565b6020604051808303816000875af11580156114cf573d6000803e3d6000fd5b505050506040513d601f19601f820116820180604052508101906114f391906127ea565b6115435760405162461bcd60e51b815260206004820152602d6024820152600080516020612c6e83398151915260448201526c08191a5c9958dd14185c995b9d609a1b6064820152608401610287565b6115ae6040518060400160405280600e81526020016d72656d61696e696e67536861726560901b81525089604051806040016040528060168152602001750736861726550657255706c696e65506172656e7433360541b815250878c6115a9919061298b565b6121ff565b6009841080156115be5750600084115b156117315760005b848110156113335760065486516001600160a01b039091169063a9059cbb908890849081106115f7576115f7612835565b6020026020010151878c61160b919061298b565b6040518363ffffffff1660e01b81526004016116289291906127d1565b6020604051808303816000875af1158015611647573d6000803e3d6000fd5b505050506040513d601f19601f8201168201806040525081019061166b91906127ea565b6117295760405162461bcd60e51b815260206004820152607760248201527f4572726f7220696e2073656e64696e6720424550323020746f2055706c696e6560448201527f20506172656e742077616c6c657420696e20636173652074686174206375727260648201527f656e7420757365722773206c6576656c206973206c657373207468616e20686960848201527f732064697265637420706172656e742773206c6576656c00000000000000000060a482015260c401610287565b6001016115c6565b600984106118325760005b6005548110156118305760065486516001600160a01b039091169063a9059cbb9088908490811061176f5761176f612835565b602002602001015160646005858154811061178c5761178c612835565b90600052602060002001548d6117a29190612961565b6117ac919061298b565b6040518363ffffffff1660e01b81526004016117c99291906127d1565b6020604051808303816000875af11580156117e8573d6000803e3d6000fd5b505050506040513d601f19601f8201168201806040525081019061180c91906127ea565b6118285760405162461bcd60e51b8152600401610287906129c6565b60010161173c565b505b505050505050505050505050505050565b600080546001600160a01b0316331461186e5760405162461bcd60e51b815260040161028790612791565b6001600160a01b0382161580159061189f57506001600160a01b03821660009081526002602052604090205460ff16155b80156118af57506118af8261224e565b6118fb5760405162461bcd60e51b815260206004820152601a60248201527f496e76616c6964206e6577206f776e657220616464726573732e0000000000006044820152606401610287565b600080546001600160a01b0319166001600160a01b03848116918217835590825260026020526040808320805460ff19166001908117909155338452818420845490931684529220820191611951910182612a37565b50600080546001600160a01b0390811680835260026020819052604080852090910180546001600160a01b031916909217909155825482168352808320600a600490910155825433845292819020905192909116916003916119b99160019190910190612b12565b908152604080516020928190038301812080546001600160a01b0319166001600160a01b03959095169490941790935533600090815260028352818120600301805480850286018501909352828552909392909190830182828015611a4757602002820191906000526020600020905b81546001600160a01b03168152600190910190602001808311611a29575b5050505050905060005b8151811015611add576000828281518110611a6e57611a6e612835565b602090810291909101810151600080546001600160a01b0390811682526002808552604080842060030180546001818101835591865296852090960180549584166001600160a01b03199687168117909155845490855293200180549093169116179055919091019050611a51565b50336000908152600260205260408120805460ff1916815590611b03600183018261229c565b6002820180546001600160a01b0319169055611b236003830160006122d6565b50600060049190910181905580546040516001600160a01b03909116917f84022644ce39de434e8f39c4398a3628815893104188274c37205d41c2d5096791a260019150505b919050565b600080546001600160a01b03163314611b995760405162461bcd60e51b815260040161028790612791565b6001600160a01b03831660009081526002602052604090205460ff16611c015760405162461bcd60e51b815260206004820152601e60248201527f5f6f6c616441646472657373207761736e2774207265676973746572656400006044820152606401610287565b6001600160a01b03821660009081526002602052604090205460ff1615611c755760405162461bcd60e51b815260206004820152602260248201527f5f6e6577416464726573732077617320616c7265616479207265676973746572604482015261195960f21b6064820152608401610287565b6001600160a01b03821615801590611c915750611c918261224e565b611cd35760405162461bcd60e51b8152602060048201526013602482015272496e76616c6964206e6577206164647265737360681b6044820152606401610287565b6001600160a01b03808316600081815260026020526040808220805460ff191660019081178255948816835290822092909152820191611d14910182612a37565b506001600160a01b03808416600090815260026020819052604080832080830154878616855282852093840180546001600160a01b03191691909616908117909555600490810154920191909155918152908120905b6003820154811015611e0057846001600160a01b0316826003018281548110611d9557611d95612835565b6000918252602090912001546001600160a01b031603611df85783826003018281548110611dc557611dc5612835565b9060005260206000200160006101000a8154816001600160a01b0302191690836001600160a01b03160217905550611e00565b600101611d6a565b5060005b6001600160a01b038516600090815260026020526040902060030154811015611ec4576001600160a01b0385166000908152600260205260408120600301805483908110611e5457611e54612835565b60009182526020808320909101546001600160a01b038881168085526002808552604080872060030180546001818101835591895296882090960180546001600160a01b031990811695909616948517905592865291909420018054909116909217909155919091019050611e04565b506001600160a01b0383166000908152600260205260409081902090518491600391611ef39160010190612b12565b908152604080516020928190038301902080546001600160a01b0319166001600160a01b0394851617905591861660009081526002909152908120805460ff1916815590611f44600183018261229c565b6002820180546001600160a01b0319169055611f646003830160006122d6565b60048201600090555050826001600160a01b0316846001600160a01b03167ffe974e742b24b618bb156393f81e84a696ac5f80d8b3cc091093442f47766c5960405160405180910390a360019150505b92915050565b60048181548110611fca57600080fd5b600091825260209091200154905081565b6000546001600160a01b031633146120055760405162461bcd60e51b815260040161028790612791565b60008211801561201757506004548211155b61205b5760405162461bcd60e51b8152602060048201526015602482015274125b9d985b1a59081c1858dad859d9481b195d995b605a1b6044820152606401610287565b806004612069600185612822565b8154811061207957612079612835565b6000918252602090912001555050565b6000546001600160a01b031633146120b35760405162461bcd60e51b815260040161028790612791565b6001600160a01b0381166121095760405162461bcd60e51b815260206004820152601e60248201527f496e76616c696420636f6d70616e792077616c6c6574206164647265737300006044820152606401610287565b600180546001600160a01b0319166001600160a01b0392909216919091179055565b6121708282604051602401612141929190612b88565b60408051601f198184030181529190526020810180516001600160e01b031663319af33360e01b179052612277565b5050565b612170828260405160240161218a929190612bb2565b60408051601f198184030181529190526020810180516001600160e01b0316632d839cb360e21b179052612277565b6121fc816040516024016121cd919061277e565b60408051601f198184030181529190526020810180516001600160e01b031663104c13eb60e21b179052612277565b50565b612248848484846040516024016122199493929190612bd4565b60408051601f198184030181529190526020810180516001600160e01b031663c67ea9d160e01b179052612277565b50505050565b6040516000906001600160a01b038316906108fc90839081818181818888f19695505050505050565b6121fc8160006a636f6e736f6c652e6c6f679050600080835160208501845afa505050565b5080546122a890612633565b6000825580601f106122b8575050565b601f0160209004906000526020600020908101906121fc91906122f0565b50805460008255906000526020600020908101906121fc91905b5b8082111561230557600081556001016122f1565b5090565b634e487b7160e01b600052604160045260246000fd5b600082601f83011261233057600080fd5b813567ffffffffffffffff8082111561234b5761234b612309565b604051601f8301601f19908116603f0116810190828211818310171561237357612373612309565b8160405283815286602085880101111561238c57600080fd5b836020870160208301376000602085830101528094505050505092915050565b80356001600160a01b0381168114611b6957600080fd5b600080604083850312156123d657600080fd5b823567ffffffffffffffff8111156123ed57600080fd5b6123f98582860161231f565b925050612408602084016123ac565b90509250929050565b60006020828403121561242357600080fd5b813567ffffffffffffffff81111561243a57600080fd5b6124468482850161231f565b949350505050565b60006020828403121561246057600080fd5b612469826123ac565b9392505050565b60005b8381101561248b578181015183820152602001612473565b50506000910152565b600081518084526124ac816020860160208601612470565b601f01601f19169290920160200192915050565b6000602080835283511515818401528084015160a060408501526124e760c0850182612494565b60408601516001600160a01b03908116606087810191909152870151868303601f19016080880152805180845290850193506000928501905b8084101561254257845183168252938501936001939093019290850190612520565b50608088015160a0880152809550505050505092915050565b60008060006060848603121561257057600080fd5b833567ffffffffffffffff81111561258757600080fd5b6125938682870161231f565b9350506125a2602085016123ac565b9150604084013590509250925092565b600080604083850312156125c557600080fd5b6125ce836123ac565b9150612408602084016123ac565b6000602082840312156125ee57600080fd5b5035919050565b6000806040838503121561260857600080fd5b50508035926020909101359150565b60008251612629818460208701612470565b9190910192915050565b600181811c9082168061264757607f821691505b60208210810361266757634e487b7160e01b600052602260045260246000fd5b50919050565b601f8211156126b9576000816000526020600020601f850160051c810160208610156126965750805b601f850160051c820191505b818110156126b5578281556001016126a2565b5050505b505050565b815167ffffffffffffffff8111156126d8576126d8612309565b6126ec816126e68454612633565b8461266d565b602080601f83116001811461272157600084156127095750858301515b600019600386901b1c1916600185901b1785556126b5565b600085815260208120601f198616915b8281101561275057888601518255948401946001909101908401612731565b508582101561276e5787850151600019600388901b60f8161c191681555b5050505050600190811b01905550565b6020815260006124696020830184612494565b6020808252600d908201526c2737ba103a34329037bbb732b960991b604082015260600190565b6000602082840312156127ca57600080fd5b5051919050565b6001600160a01b03929092168252602082015260400190565b6000602082840312156127fc57600080fd5b8151801515811461246957600080fd5b634e487b7160e01b600052601160045260246000fd5b81810381811115611fb457611fb461280c565b634e487b7160e01b600052603260045260246000fd5b60006020828403121561285d57600080fd5b815160ff8116811461246957600080fd5b600181815b808511156128a957816000190482111561288f5761288f61280c565b8085161561289c57918102915b93841c9390800290612873565b509250929050565b6000826128c057506001611fb4565b816128cd57506000611fb4565b81600181146128e357600281146128ed57612909565b6001915050611fb4565b60ff8411156128fe576128fe61280c565b50506001821b611fb4565b5060208310610133831016604e8410600b841016171561292c575081810a611fb4565b612936838361286e565b806000190482111561294a5761294a61280c565b029392505050565b600061246960ff8416836128b1565b8082028115828204841417611fb457611fb461280c565b80820180821115611fb457611fb461280c565b6000826129a857634e487b7160e01b600052601260045260246000fd5b500490565b6000600182016129bf576129bf61280c565b5060010190565b6020808252605990820152600080516020612c6e83398151915260408201527f2055706c696e6520506172656e742077616c6c657420696e206361736520746860608201527f61742075706c696e65506172656e74436f756e74206973203900000000000000608082015260a00190565b818103612a42575050565b612a4c8254612633565b67ffffffffffffffff811115612a6457612a64612309565b612a72816126e68454612633565b6000601f821160018114612aa65760008315612a8e5750848201545b600019600385901b1c1916600184901b178455612b0b565b600085815260209020601f19841690600086815260209020845b83811015612ae05782860154825560019586019590910190602001612ac0565b5085831015612afe5781850154600019600388901b60f8161c191681555b50505060018360011b0184555b5050505050565b6000808354612b2081612633565b60018281168015612b385760018114612b4d57612b7c565b60ff1984168752821515830287019450612b7c565b8760005260208060002060005b85811015612b735781548a820152908401908201612b5a565b50505082870194505b50929695505050505050565b604081526000612b9b6040830185612494565b905060018060a01b03831660208301529392505050565b604081526000612bc56040830185612494565b90508260208301529392505050565b608081526000612be76080830187612494565b8560208401528281036040840152612bff8186612494565b9150508260608301529594505050505056fe63757272656e7420757365722773206c6576656c206973206c657373207468616e20646972656374207573657263757272656e7420757365722773206c6576656c20697320686967686572207468616e2064697265637420757365724572726f7220696e2073656e64696e6720424550323020746f6b656e7320746fa2646970667358221220bde793f421e94298f2389333517874f37e56318697d9409e4f926ec11a0df0a164736f6c63430008180033",
  "linkReferences": {},
  "deployedLinkReferences": {}
}